{"abi":[{"type":"constructor","inputs":[{"name":"vaultSlotTemplate_","type":"address","internalType":"address"}],"stateMutability":"nonpayable"},{"type":"function","name":"deployVaultSlot","inputs":[{"name":"vault","type":"address","internalType":"address payable"},{"name":"salt","type":"bytes32","internalType":"bytes32"}],"outputs":[{"name":"vaultSlot","type":"address","internalType":"address"}],"stateMutability":"nonpayable"},{"type":"function","name":"ensureDeployedAndCollect","inputs":[{"name":"vault","type":"address","internalType":"address payable"},{"name":"salt","type":"bytes32","internalType":"bytes32"},{"name":"token","type":"address","internalType":"address"}],"outputs":[{"name":"vaultSlot","type":"address","internalType":"address"}],"stateMutability":"nonpayable"},{"type":"function","name":"vaultSlotTemplate","inputs":[],"outputs":[{"name":"","type":"address","internalType":"address"}],"stateMutability":"view"},{"type":"event","name":"XcashVaultSlotDeployed","inputs":[{"name":"vaultSlot","type":"address","indexed":true,"internalType":"address"},{"name":"vault","type":"address","indexed":true,"internalType":"address"},{"name":"salt","type":"bytes32","indexed":true,"internalType":"bytes32"}],"anonymous":false},{"type":"error","name":"CloneArgumentsTooLong","inputs":[]},{"type":"error","name":"Create2EmptyBytecode","inputs":[]},{"type":"error","name":"FailedDeployment","inputs":[]},{"type":"error","name":"InsufficientBalance","inputs":[{"name":"balance","type":"uint256","internalType":"uint256"},{"name":"needed","type":"uint256","internalType":"uint256"}]},{"type":"error","name":"InvalidVaultSlotTemplate","inputs":[]},{"type":"error","name":"ZeroVault","inputs":[]}],"bytecode":{"object":"0x60a06040523461009a57610d8f6020813803918261001c8161009f565b93849283398101031261009a57516001600160a01b038116810361009a57803f6105ea61004b6020820161009f565b81815260208101916107a5833951902003610089576080526040516106ca90816100db82396080518181816101130152818161030401526103c80152f35b630226e88160e21b60005260046000fd5b600080fd5b6040519190601f01601f191682016001600160401b038111838210176100c457604052565b634e487b7160e01b600052604160045260246000fdfe608080604052600436101561001357600080fd5b600090813560e01c9081632e802b1f1461037e575080637b8ef4f3146102515763f68e01281461004257600080fd5b346101e45760607ffffffffffffffffffffffffffffffffffffffffffffffffffffffffffffffffc3601126101e4576100796103f0565b906024356044359273ffffffffffffffffffffffffffffffffffffffff841680940361024d5773ffffffffffffffffffffffffffffffffffffffff81168015610225579073ffffffffffffffffffffffffffffffffffffffff92917fffffffffffffffffffffffffffffffffffffffff0000000000000000000000006040519260601b16602083015260148252610111603483610418565b7f000000000000000000000000000000000000000000000000000000000000000092846055600b6101428688610526565b602081519101206040519060408201528460208201523081520160ff8153201692833b156101e7575b50505090501690813b156101e457604051927f06ec16f80000000000000000000000000000000000000000000000000000000084526004840152808360248183865af19283156101d7576020936101c7575b5050604051908152f35b816101d191610418565b386101bd565b50604051903d90823e3d90fd5b80fd5b8193506101f49294610488565b918383167f36ed5437aaaf529d3ea60919a09c88ad91c661b5ee3c773497513c1c4fd2af4d8680a48038808061016b565b6004847fc68fcf82000000000000000000000000000000000000000000000000000000008152fd5b8280fd5b50346101e45760407ffffffffffffffffffffffffffffffffffffffffffffffffffffffffffffffffc3601126101e4576102896103f0565b9073ffffffffffffffffffffffffffffffffffffffff821660243581156103565773ffffffffffffffffffffffffffffffffffffffff610328826020967fffffffffffffffffffffffffffffffffffffffff0000000000000000000000006040519160601b168882015260148152610302603482610418565b7f0000000000000000000000000000000000000000000000000000000000000000610488565b1691827f36ed5437aaaf529d3ea60919a09c88ad91c661b5ee3c773497513c1c4fd2af4d6040519580a48152f35b6004837fc68fcf82000000000000000000000000000000000000000000000000000000008152fd5b9050346103ec57817ffffffffffffffffffffffffffffffffffffffffffffffffffffffffffffffffc3601126103ec5760209073ffffffffffffffffffffffffffffffffffffffff7f0000000000000000000000000000000000000000000000000000000000000000168152f35b5080fd5b6004359073ffffffffffffffffffffffffffffffffffffffff8216820361041357565b600080fd5b90601f7fffffffffffffffffffffffffffffffffffffffffffffffffffffffffffffffe0910116810190811067ffffffffffffffff82111761045957604052565b7f4e487b7100000000000000000000000000000000000000000000000000000000600052604160045260246000fd5b9061049291610526565b8051156104fc576020815191016000f573ffffffffffffffffffffffffffffffffffffffff8116156104c15790565b3d6104f0577fb06ebf3d0000000000000000000000000000000000000000000000000000000060005260046000fd5b6040513d6000823e3d90fd5b7f4ca249dc0000000000000000000000000000000000000000000000000000000060005260046000fd5b90615fd38151116106a057805191602d8301809311610671577fffffffffffffffffffffffffffffffffffffffff000000000000000000000000907fffff000000000000000000000000000000000000000000000000000000000000604051947f6100000000000000000000000000000000000000000000000000000000000000602087015260f01b1660218501527f3d81600a3d39f3363d3d373d3d3d363d73000000000000000000000000000000602385015260601b1660348301527f5af43d82803e903d91602b57fd5bf3000000000000000000000000000000000060488301528181519160005b83811061065957505080610656926057920160008382015203017fffffffffffffffffffffffffffffffffffffffffffffffffffffffffffffffe08101835282610418565b90565b60208282018101516057878401015285935001610611565b7f4e487b7100000000000000000000000000000000000000000000000000000000600052601160045260246000fd5b7f942890540000000000000000000000000000000000000000000000000000000060005260046000fd608060405260043610156100d5575b361561001957600080fd5b34156100ab576040513481527f4487f6d368546870956d80d81e8c5b42062dda412d9d9f9bf2d5a1cd2dc1bb7960203392a260008080803473ffffffffffffffffffffffffffffffffffffffff61006e6102db565b165af16100796102ab565b501561008157005b7f096dc0e10000000000000000000000000000000000000000000000000000000060005260046000fd5b7f1f2a20050000000000000000000000000000000000000000000000000000000060005260046000fd5b60003560e01c806306ec16f81461014c5763fbfa77cf0361000e57346101475760007ffffffffffffffffffffffffffffffffffffffffffffffffffffffffffffffffc3601126101475760206101296102db565b73ffffffffffffffffffffffffffffffffffffffff60405191168152f35b600080fd5b346101475760207ffffffffffffffffffffffffffffffffffffffffffffffffffffffffffffffffc3601126101475760043573ffffffffffffffffffffffffffffffffffffffff8116808203610147576101f657504780156100ab57600080808093817f585fb2e91ab2ff6f2d3a7377e4ec52a02413c430a7df78e2be5cd94152b0cfb96020604051848152a273ffffffffffffffffffffffffffffffffffffffff61006e6102db565b6101ff906103f3565b005b90601f7fffffffffffffffffffffffffffffffffffffffffffffffffffffffffffffffe0910116810190811067ffffffffffffffff82111761024257604052565b7f4e487b7100000000000000000000000000000000000000000000000000000000600052604160045260246000fd5b67ffffffffffffffff811161024257601f017fffffffffffffffffffffffffffffffffffffffffffffffffffffffffffffffe01660200190565b3d156102d6573d906102bc82610271565b916102ca6040519384610201565b82523d6000602084013e565b606090565b303b7fffffffffffffffffffffffffffffffffffffffffffffffffffffffffffffffd381019081116103c457601461032b61031583610271565b926103236040519485610201565b808452610271565b917fffffffffffffffffffffffffffffffffffffffffffffffffffffffffffffffe06020820193013684378051602d84303c510361039a575160601c90811561037057565b7fc68fcf820000000000000000000000000000000000000000000000000000000060005260046000fd5b7f53e347a80000000000000000000000000000000000000000000000000000000060005260046000fd5b7f4e487b7100000000000000000000000000000000000000000000000000000000600052601160045260246000fd5b6040517f70a0823100000000000000000000000000000000000000000000000000000000815230600482015273ffffffffffffffffffffffffffffffffffffffff821691602082602481865afa9182156105a2576000926105b3575b5081156105ae57600080916104626102db565b8260405173ffffffffffffffffffffffffffffffffffffffff60208201937fa9059cbb000000000000000000000000000000000000000000000000000000008552166024820152866044820152604481526104be606482610201565b51925af16104ca6102ab565b5015610546576040517f70a08231000000000000000000000000000000000000000000000000000000008152306004820152602081602481865afa9081156105a257600091610570575b506105465760207f585fb2e91ab2ff6f2d3a7377e4ec52a02413c430a7df78e2be5cd94152b0cfb991604051908152a2565b7ff27f64e40000000000000000000000000000000000000000000000000000000060005260046000fd5b90506020813d60201161059a575b8161058b60209383610201565b81010312610147575138610514565b3d915061057e565b6040513d6000823e3d90fd5b505050565b90916020823d6020116105e2575b816105ce60209383610201565b810103126105df575051903861044f565b80fd5b3d91506105c156","linkReferences":{}},"methodIdentifiers":{"deployVaultSlot(address,bytes32)":"7b8ef4f3","ensureDeployedAndCollect(address,bytes32,address)":"f68e0128","vaultSlotTemplate()":"2e802b1f"},"id":23}