{"abi":[{"type":"receive","stateMutability":"payable"},{"type":"function","name":"collect","inputs":[{"name":"token","type":"address","internalType":"address"}],"outputs":[],"stateMutability":"nonpayable"},{"type":"function","name":"vault","inputs":[],"outputs":[{"name":"vault_","type":"address","internalType":"address payable"}],"stateMutability":"view"},{"type":"event","name":"XcashCollected","inputs":[{"name":"token","type":"address","indexed":true,"internalType":"address"},{"name":"amount","type":"uint256","indexed":false,"internalType":"uint256"}],"anonymous":false},{"type":"event","name":"XcashNativeDeposited","inputs":[{"name":"payer","type":"address","indexed":true,"internalType":"address"},{"name":"amount","type":"uint256","indexed":false,"internalType":"uint256"}],"anonymous":false},{"type":"error","name":"ERC20TransferFailed","inputs":[]},{"type":"error","name":"ForwardFailed","inputs":[]},{"type":"error","name":"InvalidVaultArgs","inputs":[]},{"type":"error","name":"ZeroAmount","inputs":[]},{"type":"error","name":"ZeroVault","inputs":[]}],"bytecode":{"object":"0x60808060405234601557610594908161001b8239f35b600080fdfe60808060405260043610156100d7575b50361561001b57600080fd5b34156100ad576040513481527fc83256292cc3809427766ef317e3702f183c0f765abc8134414676920527c13660203392a260008080803473ffffffffffffffffffffffffffffffffffffffff610070610456565b165af161007b610426565b501561008357005b7f096dc0e10000000000000000000000000000000000000000000000000000000060005260046000fd5b7f1f2a20050000000000000000000000000000000000000000000000000000000060005260046000fd5b60003560e01c90816306ec16f814610156575063fbfa77cf146100fa573861000f565b346101515760007ffffffffffffffffffffffffffffffffffffffffffffffffffffffffffffffffc360112610151576020610133610456565b73ffffffffffffffffffffffffffffffffffffffff60405191168152f35b600080fd5b346101515760207ffffffffffffffffffffffffffffffffffffffffffffffffffffffffffffffffc360112610151576004359073ffffffffffffffffffffffffffffffffffffffff8216918281036101515782610205575050504780156100ad57600080808093817f585fb2e91ab2ff6f2d3a7377e4ec52a02413c430a7df78e2be5cd94152b0cfb96020604051848152a273ffffffffffffffffffffffffffffffffffffffff610070610456565b7f70a08231000000000000000000000000000000000000000000000000000000008252306004830152602082602481865afa91821561037057600092610339575b5081156100ad5760009283809361025b610456565b927f585fb2e91ab2ff6f2d3a7377e4ec52a02413c430a7df78e2be5cd94152b0cfb96020604051848152a26040519073ffffffffffffffffffffffffffffffffffffffff60208301947fa9059cbb0000000000000000000000000000000000000000000000000000000086521660248301526044820152604481526102e160648261037c565b51925af16102ed610426565b9015908115610328575b506102fe57005b7ff27f64e40000000000000000000000000000000000000000000000000000000060005260046000fd5b610332915061056e565b15816102f7565b90916020823d602011610368575b816103546020938361037c565b810103126103655750519083610246565b80fd5b3d9150610347565b6040513d6000823e3d90fd5b90601f7fffffffffffffffffffffffffffffffffffffffffffffffffffffffffffffffe0910116810190811067ffffffffffffffff8211176103bd57604052565b7f4e487b7100000000000000000000000000000000000000000000000000000000600052604160045260246000fd5b67ffffffffffffffff81116103bd57601f017fffffffffffffffffffffffffffffffffffffffffffffffffffffffffffffffe01660200190565b3d15610451573d90610437826103ec565b91610445604051938461037c565b82523d6000602084013e565b606090565b303b7fffffffffffffffffffffffffffffffffffffffffffffffffffffffffffffffd3810190811161053f5760146104a6610490836103ec565b9261049e604051948561037c565b8084526103ec565b917fffffffffffffffffffffffffffffffffffffffffffffffffffffffffffffffe06020820193013684378051602d84303c5103610515575160601c9081156104eb57565b7fc68fcf820000000000000000000000000000000000000000000000000000000060005260046000fd5b7f53e347a80000000000000000000000000000000000000000000000000000000060005260046000fd5b7f4e487b7100000000000000000000000000000000000000000000000000000000600052601160045260246000fd5b8051801561058d57602003610587576020015160011490565b50600090565b505060019056","linkReferences":{}},"methodIdentifiers":{"collect(address)":"06ec16f8","vault()":"fbfa77cf"},"id":21}