{"abi":[{"type":"receive","stateMutability":"payable"},{"type":"function","name":"collect","inputs":[{"name":"token","type":"address","internalType":"address"}],"outputs":[],"stateMutability":"nonpayable"},{"type":"function","name":"vault","inputs":[],"outputs":[{"name":"vault_","type":"address","internalType":"address payable"}],"stateMutability":"view"},{"type":"event","name":"XcashCollected","inputs":[{"name":"token","type":"address","indexed":true,"internalType":"address"},{"name":"amount","type":"uint256","indexed":false,"internalType":"uint256"}],"anonymous":false},{"type":"event","name":"XcashNativeReceived","inputs":[{"name":"from","type":"address","indexed":true,"internalType":"address"},{"name":"amount","type":"uint256","indexed":false,"internalType":"uint256"}],"anonymous":false},{"type":"error","name":"ERC20TransferFailed","inputs":[]},{"type":"error","name":"ForwardFailed","inputs":[]},{"type":"error","name":"InvalidVaultArgs","inputs":[]},{"type":"error","name":"ZeroVault","inputs":[]}],"bytecode":{"object":"0x608080604052346015576105bd908161001b8239f35b600080fdfe60806040526004361015610047575b361561001957600080fd5b6040513481527f4487f6d368546870956d80d81e8c5b42062dda412d9d9f9bf2d5a1cd2dc1bb7960203392a2005b60003560e01c806306ec16f8146100be5763fbfa77cf0361000e57346100b95760007ffffffffffffffffffffffffffffffffffffffffffffffffffffffffffffffffc3601126100b957602061009b6102ae565b73ffffffffffffffffffffffffffffffffffffffff60405191168152f35b600080fd5b346100b95760207ffffffffffffffffffffffffffffffffffffffffffffffffffffffffffffffffc3601126100b95760043573ffffffffffffffffffffffffffffffffffffffff811681036100b957610116906101f2565b005b90601f7fffffffffffffffffffffffffffffffffffffffffffffffffffffffffffffffe0910116810190811067ffffffffffffffff82111761015957604052565b7f4e487b7100000000000000000000000000000000000000000000000000000000600052604160045260246000fd5b67ffffffffffffffff811161015957601f017fffffffffffffffffffffffffffffffffffffffffffffffffffffffffffffffe01660200190565b3d156101ed573d906101d382610188565b916101e16040519384610118565b82523d6000602084013e565b606090565b73ffffffffffffffffffffffffffffffffffffffff81166102a357504780156102a057600080808093817f585fb2e91ab2ff6f2d3a7377e4ec52a02413c430a7df78e2be5cd94152b0cfb96020604051848152a273ffffffffffffffffffffffffffffffffffffffff6102636102ae565b165af161026e6101c2565b501561027657565b7f096dc0e10000000000000000000000000000000000000000000000000000000060005260046000fd5b50565b6102ac906103c6565b565b303b7fffffffffffffffffffffffffffffffffffffffffffffffffffffffffffffffd381019081116103975760146102fe6102e883610188565b926102f66040519485610118565b808452610188565b917fffffffffffffffffffffffffffffffffffffffffffffffffffffffffffffffe06020820193013684378051602d84303c510361036d575160601c90811561034357565b7fc68fcf820000000000000000000000000000000000000000000000000000000060005260046000fd5b7f53e347a80000000000000000000000000000000000000000000000000000000060005260046000fd5b7f4e487b7100000000000000000000000000000000000000000000000000000000600052601160045260246000fd5b6040517f70a0823100000000000000000000000000000000000000000000000000000000815230600482015273ffffffffffffffffffffffffffffffffffffffff821691602082602481865afa91821561057557600092610586575b50811561058157600080916104356102ae565b8260405173ffffffffffffffffffffffffffffffffffffffff60208201937fa9059cbb00000000000000000000000000000000000000000000000000000000855216602482015286604482015260448152610491606482610118565b51925af161049d6101c2565b5015610519576040517f70a08231000000000000000000000000000000000000000000000000000000008152306004820152602081602481865afa90811561057557600091610543575b506105195760207f585fb2e91ab2ff6f2d3a7377e4ec52a02413c430a7df78e2be5cd94152b0cfb991604051908152a2565b7ff27f64e40000000000000000000000000000000000000000000000000000000060005260046000fd5b90506020813d60201161056d575b8161055e60209383610118565b810103126100b95751386104e7565b3d9150610551565b6040513d6000823e3d90fd5b505050565b90916020823d6020116105b5575b816105a160209383610118565b810103126105b25750519038610422565b80fd5b3d915061059456","linkReferences":{}},"methodIdentifiers":{"collect(address)":"06ec16f8","vault()":"fbfa77cf"},"id":23}