{"abi":[{"type":"constructor","inputs":[{"name":"vaultSlotImplementation_","type":"address","internalType":"address"}],"stateMutability":"nonpayable"},{"type":"function","name":"deployVaultSlot","inputs":[{"name":"vault","type":"address","internalType":"address payable"},{"name":"salt","type":"bytes32","internalType":"bytes32"}],"outputs":[{"name":"vaultSlot","type":"address","internalType":"address"}],"stateMutability":"nonpayable"},{"type":"function","name":"vaultSlotImplementation","inputs":[],"outputs":[{"name":"","type":"address","internalType":"address"}],"stateMutability":"view"},{"type":"event","name":"XcashVaultSlotDeployed","inputs":[{"name":"vaultSlot","type":"address","indexed":true,"internalType":"address"},{"name":"vault","type":"address","indexed":true,"internalType":"address"},{"name":"salt","type":"bytes32","indexed":true,"internalType":"bytes32"}],"anonymous":false},{"type":"error","name":"CloneArgumentsTooLong","inputs":[]},{"type":"error","name":"Create2EmptyBytecode","inputs":[]},{"type":"error","name":"FailedDeployment","inputs":[]},{"type":"error","name":"InsufficientBalance","inputs":[{"name":"balance","type":"uint256","internalType":"uint256"},{"name":"needed","type":"uint256","internalType":"uint256"}]},{"type":"error","name":"InvalidVaultSlotImplementation","inputs":[]},{"type":"error","name":"ZeroVault","inputs":[]}],"bytecode":{"object":"0x60a06040523461009357610aec6020813803918261001c81610098565b93849283398101031261009357516001600160a01b038116810361009357803f6105bd61004b60208201610098565b818152602081019161052f8339519020036100825760805260405161045b90816100d4823960805181818161018301526103c70152f35b6341d52b3760e01b60005260046000fd5b600080fd5b6040519190601f01601f191682016001600160401b038111838210176100bd57604052565b634e487b7160e01b600052604160045260246000fdfe608080604052600436101561001357600080fd5b60003560e01c9081632c88124f1461037e5750637b8ef4f31461003557600080fd5b346103795760407ffffffffffffffffffffffffffffffffffffffffffffffffffffffffffffffffc3601126103795760043573ffffffffffffffffffffffffffffffffffffffff81168082036103795760243591811561034f577fffffffffffffffffffffffffffffffffffffffff0000000000000000000000006040519160601b166020820152601481526100cc6034826103eb565b615fd381511161032557805190602d82018092116102f657604051907fffff00000000000000000000000000000000000000000000000000000000000060208301937f6100000000000000000000000000000000000000000000000000000000000000855260f01b1660218301527f3d81600a3d39f3363d3d373d3d3d363d7300000000000000000000000000000060238301527fffffffffffffffffffffffffffffffffffffffff0000000000000000000000007f000000000000000000000000000000000000000000000000000000000000000060601b1660348301527f5af43d82803e903d91602b57fd5bf3000000000000000000000000000000000060488301528181519160005b8381106102de5750508061021d926057920160008382015203017fffffffffffffffffffffffffffffffffffffffffffffffffffffffffffffffe081018352826103eb565b8051156102b45773ffffffffffffffffffffffffffffffffffffffff91849151906000f51680156102795760209260405192827f36ed5437aaaf529d3ea60919a09c88ad91c661b5ee3c773497513c1c4fd2af4d600080a48152f35b3d6102a8577fb06ebf3d0000000000000000000000000000000000000000000000000000000060005260046000fd5b6040513d6000823e3d90fd5b7f4ca249dc0000000000000000000000000000000000000000000000000000000060005260046000fd5b602082820181015160578784010152859350016101d8565b7f4e487b7100000000000000000000000000000000000000000000000000000000600052601160045260246000fd5b7f942890540000000000000000000000000000000000000000000000000000000060005260046000fd5b7fc68fcf820000000000000000000000000000000000000000000000000000000060005260046000fd5b600080fd5b346103795760007ffffffffffffffffffffffffffffffffffffffffffffffffffffffffffffffffc3601126103795760209073ffffffffffffffffffffffffffffffffffffffff7f0000000000000000000000000000000000000000000000000000000000000000168152f35b90601f7fffffffffffffffffffffffffffffffffffffffffffffffffffffffffffffffe0910116810190811067ffffffffffffffff82111761042c57604052565b7f4e487b7100000000000000000000000000000000000000000000000000000000600052604160045260246000fd60806040526004361015610047575b361561001957600080fd5b6040513481527f4487f6d368546870956d80d81e8c5b42062dda412d9d9f9bf2d5a1cd2dc1bb7960203392a2005b60003560e01c806306ec16f8146100be5763fbfa77cf0361000e57346100b95760007ffffffffffffffffffffffffffffffffffffffffffffffffffffffffffffffffc3601126100b957602061009b6102ae565b73ffffffffffffffffffffffffffffffffffffffff60405191168152f35b600080fd5b346100b95760207ffffffffffffffffffffffffffffffffffffffffffffffffffffffffffffffffc3601126100b95760043573ffffffffffffffffffffffffffffffffffffffff811681036100b957610116906101f2565b005b90601f7fffffffffffffffffffffffffffffffffffffffffffffffffffffffffffffffe0910116810190811067ffffffffffffffff82111761015957604052565b7f4e487b7100000000000000000000000000000000000000000000000000000000600052604160045260246000fd5b67ffffffffffffffff811161015957601f017fffffffffffffffffffffffffffffffffffffffffffffffffffffffffffffffe01660200190565b3d156101ed573d906101d382610188565b916101e16040519384610118565b82523d6000602084013e565b606090565b73ffffffffffffffffffffffffffffffffffffffff81166102a357504780156102a057600080808093817f585fb2e91ab2ff6f2d3a7377e4ec52a02413c430a7df78e2be5cd94152b0cfb96020604051848152a273ffffffffffffffffffffffffffffffffffffffff6102636102ae565b165af161026e6101c2565b501561027657565b7f096dc0e10000000000000000000000000000000000000000000000000000000060005260046000fd5b50565b6102ac906103c6565b565b303b7fffffffffffffffffffffffffffffffffffffffffffffffffffffffffffffffd381019081116103975760146102fe6102e883610188565b926102f66040519485610118565b808452610188565b917fffffffffffffffffffffffffffffffffffffffffffffffffffffffffffffffe06020820193013684378051602d84303c510361036d575160601c90811561034357565b7fc68fcf820000000000000000000000000000000000000000000000000000000060005260046000fd5b7f53e347a80000000000000000000000000000000000000000000000000000000060005260046000fd5b7f4e487b7100000000000000000000000000000000000000000000000000000000600052601160045260246000fd5b6040517f70a0823100000000000000000000000000000000000000000000000000000000815230600482015273ffffffffffffffffffffffffffffffffffffffff821691602082602481865afa91821561057557600092610586575b50811561058157600080916104356102ae565b8260405173ffffffffffffffffffffffffffffffffffffffff60208201937fa9059cbb00000000000000000000000000000000000000000000000000000000855216602482015286604482015260448152610491606482610118565b51925af161049d6101c2565b5015610519576040517f70a08231000000000000000000000000000000000000000000000000000000008152306004820152602081602481865afa90811561057557600091610543575b506105195760207f585fb2e91ab2ff6f2d3a7377e4ec52a02413c430a7df78e2be5cd94152b0cfb991604051908152a2565b7ff27f64e40000000000000000000000000000000000000000000000000000000060005260046000fd5b90506020813d60201161056d575b8161055e60209383610118565b810103126100b95751386104e7565b3d9150610551565b6040513d6000823e3d90fd5b505050565b90916020823d6020116105b5575b816105a160209383610118565b810103126105b25750519038610422565b80fd5b3d915061059456","linkReferences":{}},"methodIdentifiers":{"deployVaultSlot(address,bytes32)":"7b8ef4f3","vaultSlotImplementation()":"2c88124f"},"id":24}